:020000020000FC
:100000000FEF0DBF0FE00EBF01E806B902E007B920
:100010002DD0882458C13090008037FCFCCF03D00D
:1000200000930080089500D0000008952D3069F1FC
:100030002A30A9F10091008007FDFCCFF4DF209366
:1000400000C0089501E0E7CF02E0E5CF00E1E3CF93
:1000500004E1E1CF08E1DFCF0CE1DDCF0DE0DBCF44
:100060000CE0D9CF0EE0D7CF0CE0D5CF05B7006CB0
:1000700005BF01E0D0DF06E0CEDF0CE0CCDF08E317
:10008000CADF0895022F0068C6CF0091008007FDE7
:10009000FCCF00740068C7DF0093008008952F93A1
:1000A00020E4F0DF2F910895FF91EF91EE0FFF1FF5
:1000B000AF93BF93C8953196002021F04AF0002DF0
:1000C00013D0F8CF3196F695E795BF91AF9109948B
:1000D00000FA002DC895A02DBB273196043879F081
:1000E000053881F015C0E6CF2F93FF93EF93E42DF1
:1000F000F52D202F0995EF91FF912F9108950C91E7
:10010000F3DFD8CF0D91002309F4D4CFEDDFFACF80
:100110005F934F933F932F939F938F937F936F930F
:100120002D913D914D915D9106FD06C005FD0FC0DD
:1001300004FD10C003FD19C06AE0702F769577703A
:10014000729580E0902F9295937093951AC062E01B
:1001500094E003C060E194E000C0702F7695777062
:1001600009F478E0729580E00CC06AE0C895802DB3
:100170003196C895702D3196902F959593709395E3
:1001800000C0943081F0933051F0923021F0332749
:1001900016F427FD3FEF442716F437FD4FEF5527A0
:1001A00016F447FD5FEF09D06F917F918F919F917A
:1001B0002F913F914F915F917DCFCF92BF92AF92A0
:1001C0009F928F92BB18AA249924882486F4E894DD
:1001D00055236AF46894772309F07051509540953F
:1001E000309520950FEF201B300B400B500B8823D0
:1001F00051F05595479537952795B794A7949794BF
:1002000087948A95B1F77F9372957F700EE20F9372
:1002100045D00C2D30D00F93002720173007400712
:10022000500729F07723A1F37A9591F707C0772338
:1002300029F07A9519F000E257DFF9CF16F40DE2B4
:1002400053DF0F910E3211F04FDFFBCF7F917F70A4
:10025000772359F049DF282D392D4A2D5B2D11D0F8
:100260000C2D09D041DF7A95D1F78F909F90AF90F8
:10027000BF90CF9008950A3010F4005D0895095A98
:100280000895CC2400E2889420FDC60EC7945795AB
:100290004795379527950A95B1F70895CC2400E244
:1002A000221F331F441F551FCC1CC61A08F4C60E4C
:1002B0000A95B1F7221F331F441F551F50954095D3
:1002C000309520950895369A3699FECF24B135B1F0
:1002D000622F630F6F579FE3691B0AF00FD000D0A6
:1002E000E89406E1402E00E0502EDEDE0D0D534F67
:1002F000554E44203DC008202000E5CF16F06894FC
:10030000839406E1402E00E0502ECEDE0D0D534FBB
:0C031000554E44203DC008202000D5CFF1
:00000001FF
