:020000020000FC
:0200000041C0FD
:0200380019C0ED
:1000600073686F7274006C6F6E67200010E4811A01
:1000700020F09924E394882418959394B9D1EE2420
:10008000882418950FEF0DBF0FE00EBF0FEF07BBD1
:1000900008E000BF05E806B902E007B904E007BFC1
:1000A00002E00EBD789402D039D07FC16627772751
:1000B000992788249924AA24BB24CC24DD24EE2467
:1000C000FF24089508953090008037FCFCCF03D0C2
:1000D00000930080089500D0000008952D3069F14C
:1000E0002A30A9F10091008007FDFCCFF4DF2093B6
:1000F00000C0089501E0E7CF02E0E5CF00E1E3CFE3
:1001000004E1E1CF08E1DFCF0CE1DDCF0DE0DBCF93
:100110000CE0D9CF0EE0D7CF0CE0D5CF05B7006CFF
:1001200005BF01E0D0DF06E0CEDF0CE0CCDF08E366
:10013000CADF0895022F0068C6CF0091008007FD36
:10014000FCCF00740068C7DF0093008008952F93F0
:1001500020E4F0DF2F910895FF91EF91EE0FFF1F44
:10016000AF93BF93C8953196002021F04AF0002D3F
:1001700013D0F8CF3196F695E795BF91AF910994DA
:1001800000FA002DC895A02DBB273196043879F0D0
:10019000053881F015C0E6CF2F93FF93EF93E42D40
:1001A000F52D202F0995EF91FF912F9108950C9136
:1001B000F3DFD8CF0D91002309F4D4CFEDDFFACFD0
:1001C0005F934F933F932F939F938F937F936F935F
:1001D0002D913D914D915D9106FD06C005FD0FC02D
:1001E00004FD10C003FD19C06AE0702F769577708A
:1001F000729580E0902F9295937093951AC062E06B
:1002000094E003C060E194E000C0702F76957770B1
:1002100009F478E0729580E00CC06AE0C895802D02
:100220003196C895702D3196902F95959370939532
:1002300000C0943081F0933051F0923021F0332798
:1002400016F427FD3FEF442716F437FD4FEF5527EF
:1002500016F447FD5FEF09D06F917F918F919F91C9
:100260002F913F914F915F917DCFCF92BF92AF92EF
:100270009F928F92BB18AA249924882486F4E8942C
:1002800055236AF46894772309F07051509540958E
:10029000309520950FEF201B300B400B500B88231F
:1002A00051F05595479537952795B794A79497940E
:1002B00087948A95B1F77F9372957F700EE20F93C2
:1002C00045D00C2D30D00F93002720173007400762
:1002D000500729F07723A1F37A9591F707C0772388
:1002E00029F07A9519F000E257DFF9CF16F40DE204
:1002F00053DF0F910E3211F04FDFFBCF7F917F70F4
:10030000772359F049DF282D392D4A2D5B2D11D047
:100310000C2D09D041DF7A95D1F78F909F90AF9047
:10032000BF90CF9008950A3010F4005D0895095AE7
:100330000895CC2400E2889420FDC60EC7945795FA
:100340004795379527950A95B1F70895CC2400E293
:10035000221F331F441F551FCC1CC61A08F4C60E9B
:100360000A95B1F7221F331F441F551F5095409522
:100370003095209508954100420043004400450017
:1003800046004700480049004A004B004C004D0021
:100390004E004F00500051005200530054005500D1
:1003A00056005700580059007A00369A3699FECF09
:1003B000C4B0D5B0C694C6946C2DDD0CDD0CDD0C3C
:1003C000DD0CDD0CDD0C6D0D6F577FE3671B0AF054
:1003D00002D00CD0EACF0A2D21E0BB2011F4B39457
:1003E00071DE021B11F0A39483940895AA2408954A
:1003F000F8BA03E0091911F41BD00895EE2011F4A6
:10040000BB24089501E00E1911F406D0089503E00D
:100410000E1909F407D0089501E0FF0CFF0CF00E4F
:100420009395089502E0FF0CFF0CF00E939508954C
:10043000FF2009F40895FF2019F003D0FF24992725
:1004400008954F2D417011F403C008953AC00895E6
:100450004F2D4C7011F4DFD008954F2D4470B1F43E
:100460004F2D407311F4B4D008954F2D407139F4DD
:100470004F2D407C11F4B6D008959BD008954F2D98
:10048000407C11F4D7D00895DFD008954F2D4073EC
:1004900011F462D008954F2D407151F44F2D407CDE
:1004A00011F48CD00895A8D008954F2D407C11F4FC
:1004B000B7D008954F2D407411F4C1D00895B5D030
:1004C00008954F2D4C7011F45BD008954F2D44705A
:1004D000D9F44F2D407311F480D008954F2D407101
:1004E00039F44F2D407C11F455D0089580D00895F3
:1004F0004F2D407C11F485D008954F2D407411F498
:1005000035D0089542D008954F2D407311F44CD04A
:1005100008954F2D407151F44F2D407C11F42BD094
:1005200008954F2D407411F494D008954CD008953F
:100530004F2D407C11F46AD008954F2D407411F472
:1005400010D008952CD00895C895002021F0202DBA
:10055000C5DD3196F9CF089500E3E6E7F3E0F4DF77
:10056000089500E3E8E7F3E0EFDF089500E3EAE74A
:10057000F3E0EADF089500E3ECE7F3E0E5DF089558
:1005800000E3EEE7F3E0E0DF089500E3E0E8F3E006
:10059000DBDF089500E3E2E8F3E0D6DF089500E34F
:1005A000E4E8F3E0D1DF089500E3E6E8F3E0CCDF30
:1005B000089500E3E8E8F3E0C7DF089500E3EAE820
:1005C000F3E0C2DF089500E3ECE8F3E0BDDF089557
:1005D00000E3EEE8F3E0B8DF089500E3E0E9F3E0DC
:1005E000B3DF089500E3E2E9F3E0AEDF089500E34E
:1005F000E4E9F3E0A9DF089500E3E6E9F3E0A4DF2E
:10060000089500E3E8E9F3E09FDF089500E3EAE9F5
:10061000F3E09ADF089500E3ECE9F3E095DF089555
:1006200000E3EEE9F3E090DF089500E3E0EAF3E0B1
:100630008BDF089500E3E2EAF3E086DF089500E34C
:10064000E4EAF3E081DF089500E3E6EAF3E07CDF2B
:0C065000089500E3E8EAF3E077DF089586
:00000001FF
